:020000040800F2
:10000000C8060020890100081906000845040008F8
:10001000150600088F020008E51200080000000025
:10002000000000000000000000000000C50F0008F4
:100030009302000800000000A90D00080911000843
:10004000A3010008A3010008A3010008A301000800
:10005000A3010008A3010008A3010008A3010008F0
:10006000A3010008A3010008A3010008A3010008E0
:10007000A3010008A3010008A3010008A3010008D0
:10008000A3010008A3010008A3010008A3010008C0
:10009000A3010008A3010008A3010008A3010008B0
:1000A000A3010008A3010008A3010008A3010008A0
:1000B000A30100086D110008A3010008A3010008B6
:1000C000A3010008A3010008A3010008A301000880
:1000D000A3010008A3010008A3010008A301000870
:1000E000A3010008A3010008A301000800F002F822
:1000F00000F03AF80AA090E8000C82448344AAF188
:100100000107DA4501D100F02FF8AFF2090EBAE885
:100110000F0013F0010F18BFFB1A43F0010318473B
:10012000001B0000201B0000103A24BF78C878C1D3
:10013000FAD8520724BF30C830C144BF04680C60ED
:10014000704700000023002400250026103A28BF35
:1001500078C1FBD8520728BF30C148BF0B60704739
:100160001FB51FBD10B510BD00F058F81146FFF7C0
:10017000F7FF01F0E7F800F076F803B4FFF7F2FFBD
:1001800003BC00F07DF8000009488047094800479B
:10019000FEE7FEE7FEE7FEE7FEE7FEE7FEE7FEE737
:1001A000FEE7FEE704480549054A064B7047000094
:1001B0000D110008ED000008C8000020C80600204E
:1001C000C8020020C80200204FF0000200B513460C
:1001D00094469646203922BFA0E80C50A0E80C5067
:1001E000B1F12001BFF4F7AF090728BFA0E80C5018
:1001F00048BF0CC05DF804EB890028BF40F8042B11
:1002000008BF704748BF20F8022B11F0804F18BF7D
:1002100000F8012B7047704770477047754600F033
:100220002BF8AE4605006946534620F00700854688
:1002300018B020B5FFF7B6FFBDE820404FF000062C
:100240004FF000074FF000084FF0000B21F00701BE
:10025000AC46ACE8C009ACE8C009ACE8C009ACE801
:10026000C0098D46704710B50446AFF300802046A4
:10027000BDE81040FFF781BF0048704764000020D0
:1002800001491820ABBEFEE726000200704700BF00
:10029000FEE770472DE9F0410246002500260020C8
:1002A00000230024002791F803C00CF00F0591F8FB
:1002B00003C00CF0100CBCF1000F03D091F802C089
:1002C0004CEA050591F800C0BCF1000F31D014686C
:1002D00000202BE04FF0010C0CFA00F3B1F800C045
:1002E0000CEA03069E4220D183004FF00F0C0CFA5B
:1002F00003F7BC4305FA03FC4CEA040491F803C07D
:10030000BCF1280F06D14FF0010C0CFA00FCC2F82A
:1003100014C00AE091F803C0BCF1480F05D14FF0BA
:10032000010C0CFA00FCC2F810C0401C0828D1D304
:100330001460B1F800C0BCF1FF0F34DD5468002038
:100340002EE000F1080C4FF0010808FA0CF3B1F8A8
:1003500000C00CEA03069E4221D183004FF00F0C2F
:100360000CFA03F7BC4305FA03FC4CEA040491F8C9
:1003700003C0BCF1280F05D100F1080C08FA0CF8F5
:10038000C2F8148091F803C0BCF1480F07D100F106
:10039000080C4FF0010808FA0CF8C2F81080401C55
:1003A0000828CED35460BDE8F0810000F0B50A46BD
:1003B000002300240021002500F00046B6F1004F84
:1003C00002D11D4EF16901E01B4E7168C0F3034577
:1003D00083B200F44016B6F5401F08D121F07061D9
:1003E000154E766826F07066134F7E6012E000F4BA
:1003F0008016B6F5801F06D1032606FA05F4A14340
:1004000041F0706106E0460D360103FA06F6B1438D
:1004100041F0706122B1460D360103FA06F6314310
:1004200000F00046B6F1004F02D1034EF16101E049
:10043000014E7160F0BD0000000001404161704755
:100440000161704700BFFEE708B50121084600F0D2
:10045000BDFC01211948FFF7A9FF01211C2000F074
:10046000B5FC0120ADF8000028208DF80300694696
:100470001348FFF70FFF4FF41940ADF80000482074
:100480008DF8030069460E48FFF704FF4FF47270C1
:10049000ADF8000048208DF8030069460948FFF7D1
:1004A000F9FE4FF44040ADF8000048208DF80300FD
:1004B00069460548FFF7EEFE08BD00000002300067
:1004C00000080140000C01400010014030B500213F
:1004D0000122002000BF65E0344B5B5C43B9344B24
:1004E0005B5C344C04EB8303D3F80031DAB218E0E0
:1004F0002E4B5B5C012B08D12D4B5B5C2E4C04EB2F
:100500008303D3F80031DAB20BE0284B5B5C022B9B
:1005100007D1274B5B5C294C04EB8303D3F80031F4
:10052000DAB2274B5B5C934217D1264B33F811406C
:1005300033F811305B1C234D25F8113041F288331C
:100540009C4207DD0323204C635441F288332C4640
:1005500024F81130431CD8B222E01A4B33F8113082
:100560000A2B09DB174B33F81130B3F5FA7F03DCA4
:100570000123154C63540FE0124B33F81130B3F5DF
:10058000FA7F09DD0F4B33F8113041F28834A34272
:1005900002DC02230C4C635400230A4C24F8113073
:1005A0004B1CD9B20C2997DB30BD0000060000209F
:1005B000120000200000214200802142000022425F
:1005C0001E0000204C0000204000002008B5012142
:1005D000084600F0FBFB01210C48FFF7E7FE012174
:1005E000082000F0F3FB3020ADF8000010208DF85B
:1005F000030001208DF8020069460548FFF74AFE16
:1006000030210348FFF71CFF08BD00000001300047
:10061000000C014000BFFEE7704700001CB511A1AF
:1006200003C9CDE90001082000F086FC05226946D7
:10063000302000F0EFF805226946102000F04AF85B
:10064000002406E01DF80400A52800D003E0601C8B
:10065000C4B2052CF6DB00BF052C01D001201CBD67
:100660000020FCE7A5A5A5A5A500000008B501216F
:10067000082000F0ABFB4FF4A050ADF800001020B4
:100680008DF8030003208DF8020069460E48FFF73D
:1006900001FE4FF4A0510C48FFF7D0FE4FF400606C
:1006A000ADF8000004208DF8030069460648FFF706
:1006B000F1FD00F0B7FB0020044908600120044967
:1006C000C1F8A80108BD0000000C0140B081214222
:1006D000008021422DE9F04107460D4616460020D4
:1006E0000A490860384600F0FDFB8046002405E01A
:1006F000FF2000F0F7FB2855601CC4B2B442F7DBC2
:100700000120024908604046BDE8F081A8812142ED
:1007100070B50446002007490860204600F0E2FB5F
:10072000FF2000F0DFFB054601200349C1F8A801C6
:10073000284670BDA88121420080214210B50020CA
:100740001449086005221449302000F063F805229E
:1007500012492A2000F05EF80121212000F078F8EB
:100760000121222000F074F81A21242000F070F8F2
:100770002821252000F06CF80F21262000F068F8D1
:100780000E21202000F064F801200549C1F8B001D5
:1007900010BD0000B0812142161C00081B1C00087F
:1007A0000080214270B50546102000F0C5FB0020F6
:1007B0001649086020222946A02000F02BF80120CD
:1007C0001349C1F8B00100BF104884380068002800
:1007D000FAD10720FFF79CFF04462146272000F0AE
:1007E00037F804F0100048B1FF21E12000F030F8A4
:1007F0002146272000F02CF8102070BD04F02000C6
:1008000008B12020F9E7FF20F7E70000B08121427E
:10081000008021422DE9F04107460C461546002094
:100820000A490860384600F05DFB8046002605E076
:1008300014F8010B00F056FB701CC6B2AE42F7DB99
:100840000120024908604046BDE8F081A8812142AC
:1008500070B505460C46002007490860284600F0A0
:1008600041FB0646204600F03DFB01200349C1F84C
:10087000A801304670BD0000A881214200802142BD
:1008800070B58AB0002400250026242101A8FFF7B6
:100890009BFC2248047800BF08E0601CC4B27E2C98
:1008A00000DD202401A84455681CC5B2202DF4DBCE
:1008B0001A480078401C19490870084600787E28BC
:1008C00001DD2020087000208DF8240001A8FFF72A
:1008D00069FF0646102003233246042100900020C1
:1008E00000F0E2F9202E0BD10D480068C0430D49FD
:1008F000C1F890010CA20421282000F017FA04E0AE
:100900000BA20421282000F011FA0548001D006800
:10091000C0430449C1F894010AB070BD0100002031
:1009200090812142008021425458204F4B202000CA
:100930005458204641494C0070B5002100230F2235
:10094000C47804B3154C246804F4E064C4F5E0648E
:10095000210AC1F10403CA40447804FA03F18478FF
:100960001440214309010E4C0678A155047804F087
:100970001F050124AC4005786D11AD0005F1E0259F
:10098000C5F8004109E0047804F01F050124AC40DB
:10099000044D0678761145F8264070BD0CED00E058
:1009A00000E400E080E100E002490143024A1160F6
:1009B000704700000000FA050CED00E070B500245F
:1009C00019E004F1B001C8B2002100F0CBF9002118
:1009D000084600F0C7F90021102000F0C3F90025F7
:1009E00005E00121002000F0BDF9681CC5B2802D92
:1009F000F7DB601CC4B2082CE3DB70BD00B587B028
:100A0000012141F20C0000F0E1F90320ADF80400EF
:100A100010208DF8070003208DF8060001A9274853
:100A2000FFF738FC03212548FFF70AFD2020ADF829
:100A3000040003208DF8060018208DF8070001A996
:100A40001F48FFF727FC8020ADF8040001A91C48CF
:100A5000FFF720FC1020ADF804008DF8070001A975
:100A60001748FFF717FC10211548FFF7E9FC002095
:100A7000ADF808004FF48270ADF80A000020ADF820
:100A80000C000220ADF80E000120ADF8100040026D
:100A9000ADF812000820ADF814000020ADF81600E3
:100AA0000720ADF8180002A9064800F06DFA0121F0
:100AB000044800F04FFA07B000BD0000000C0140F0
:100AC000000801400030014010B5FFF797FF0121F9
:100AD0004D48FFF7B5FC642000F028FC01214A488E
:100AE000FFF7ACFCC82000F021FC01214648FFF7CD
:100AF000A7FCC82000F01AFC0021AE2000F032F95B
:100B000000212E2000F02EF90021084600F02AF9DD
:100B10000021102000F026F90021402000F022F9E9
:100B20000021B02000F01EF90021812000F01AF908
:100B30000021FF2000F016F90021A12000F012F999
:100B40000021A62000F00EF90021A82000F00AF9EB
:100B500000213F2000F006F90021C82000F002F932
:100B60000021D32000F0FEF80021084600F0FAF83A
:100B70000021D52000F0F6F80021802000F0F2F8E6
:100B80000021D82000F0EEF80021052000F0EAF85E
:100B90000021D62000F0E6F80021084600F0E2F837
:100BA0000021D92000F0DEF80021F12000F0DAF871
:100BB0000021DA2000F0D6F80021122000F0D2F84F
:100BC0000021DB2000F0CEF80021302000F0CAF830
:100BD00000218D2000F0C6F80021142000F0C2F89A
:100BE0000021A42000F0BEF80021A62000F0BAF8F1
:100BF0000021AF2000F0B6F8FFF7E0FE0021084624
:100C000000F004F810BD0000000C014070B504466F
:100C10000D4605F1B001C8B2002100F0A3F804F0C0
:100C20000F00002100F09EF8102141EA141000216D
:100C300000F098F870BD00002DE9F04107460E461F
:100C4000904600250024A8F12000C5B27F2F02DDC8
:100C50000027B01CC6B231463846FFF7D7FF002444
:100C600008E004EB05110F4A505C012100F07AF80E
:100C7000601CC4B2082CF4DB701CC1B23846FFF70C
:100C8000C5FF002409E004EB05110831054A505C5A
:100C9000012100F067F8601CC4B2082CF3DBBDE84A
:100CA000F0810000261600082DE9FF5F07469146F7
:100CB0001D460E9E4FF0000A002433E0281B401E04
:100CC000C1B20A2000F090FBB9FBF0F00A21B0FBA2
:100CD000F1F201FB1208BAF1000F13D1681EA04215
:100CE00010DDB8F1000F0BD1B34606EBDB714910F4
:100CF00001FB0471C8B220220199FFF79DFF0FE0AC
:100D00004FF0010AB34606EBDB71491001FB047199
:100D1000C8B208F13001CAB20199FFF78DFF00BFD8
:100D2000601CC4B2AC42C9DBBDE8FF9F2DE9F041B5
:100D300004460F46154600260EE0AA5D39462046B9
:100D4000FFF77AFF04F10800C4B2802C02DB002414
:100D5000B81CC7B2701CC6B2A85D0028EDD1BDE8B2
:100D6000F081000070B505460C4624B102210C4804
:100D7000FFF766FB03E002210948FFF75FFB102144
:100D80000848FFF75BFB284600F030F810210548C3
:100D9000FFF756FB02210248FFF752FB70BD00002F
:100DA000000C0140000801407047000029B1064ACC
:100DB000D2690243044BDA6104E0034AD2698243F8
:100DC000014BDA61704700000010024029B1064A69
:100DD00092690243044B9A6104E0034A9269824398
:100DE000014B9A61704700000010024010B50446A4
:100DF00000BF02210A4800F0B9F80028F9D02146C6
:100E0000074800F0BFF800BF0121054800F0AEF828
:100E10000028F9D0024800F0B2F8C0B210BD0000BE
:100E20000030014000B587B001210820FFF7CEFF58
:100E300001210846FFF7CAFF01218803FFF7B6FF2B
:100E40004FF42040ADF8180018208DF81B00032047
:100E50008DF81A0006A92148FFF71CFA4FF420412B
:100E60001E48FFF7EDFA4FF48040ADF8180004205B
:100E70008DF81B0003208DF81A0006A91748FFF70C
:100E800009FA4FF480411548FFF7DAFA0020ADF86F
:100E900004004FF48270ADF806000020ADF80800A1
:100EA000ADF80A00ADF80C004FF40070ADF80E007C
:100EB0001820ADF810000020ADF812000720ADF8A2
:100EC000140001A9064800F05FF80121044800F071
:100ED00041F8FF2000F006F807B000BD000C01400B
:100EE0000038004070B504460026002505E0701C5F
:100EF000C6B2FA2E01DD002070BD02210D4800F0BF
:100F000035F80028F3D021460A4800F03BF805E008
:100F1000681CC5B2FA2D01DD0020EDE7012105486E
:100F200000F024F80028F3D0024800F028F8C0B2FE
:100F3000E2E7000000380040054909884FF6C77213
:100F40001140034A118011460988014311807047FE
:100F50000038004021B1028842F04002028004E0E3
:100F600002884FF6BF731A40028070470246002085
:100F700013890B400BB1012000E0002070470146AF
:100F8000888970478181704710B50022028802F479
:100F900041520B884C8823438C882343CC882343BD
:100FA0000C8923434C8923438C892343CC892343D5
:100FB0001A430280838B4FF2FF74234083830B8A92
:100FC000038210BD704710B500F002F810BD00009C
:100FD0000CB50020019000903348006840F4803048
:100FE0003149086000BF3048006800F400300090CC
:100FF0000198401C0190009820B94FF6FF710198AC
:101000008842F0D12848006800F4003010B1012077
:10101000009001E0002000900098012843D123486F
:10102000006840F01000214908600846006820F080
:10103000030008600846006840F0020008601A4893
:10104000406819494860084640684860084640685A
:1010500040F4806048600846406820F47C10486096
:101060000846406840F4E81048600846006840F0D0
:101070008070086000BF0C48006800F00070002815
:10108000F9D00948406820F0030007494860084645
:10109000406840F00200486000BF0348406800F02C
:1010A0000C000828F9D10CBD0010024000200240BD
:1010B00038B5002400BF0DE01020084900900A5DFB
:1010C000002101EBC401C8B201230621FFF7ECFDAA
:1010D000601CC4B20C2CEFDB38BD000040000020C7
:1010E000042808D14FF0E021096941F004014FF0D4
:1010F000E022116107E04FF0E021096921F00401CD
:101100004FF0E022116170477047000010B513489E
:10111000006840F001001149086008464068104925
:1011200008400E494860084600680E4908400B49CF
:1011300008600846006820F480200860084640687F
:1011400020F4FE0048604FF41F008860FFF73BFF6B
:101150004FF000600449086010BD0000001002401C
:101160000000FFF8FFFFF6FE08ED00E010B50121DA
:10117000054800F04AF830B10121034800F036F884
:1011800001200249087010BD00040040000000204A
:101190001FB501210220FFF709FE40F2E730ADF84C
:1011A00008004720ADF804000020ADF80A00ADF8B3
:1011B000060001A90C4800F043F8012211460A4834
:1011C00000F034F81D208DF8000001208DF801009A
:1011D0008DF802008DF803006846FFF7ADFB012192
:1011E000014800F006F81FBD00040040CA43028217
:1011F000704721B1028842F00102028004E00288B7
:101200004FF6FE731A400280704730B50246002048
:1012100000230024158A05EA0103958905EA0104E3
:1012200013B10CB1012000E0002030BD1AB1838958
:101230000B43838102E083898B43838170470000E5
:10124000002202881D4B98420ED01D4B98420BD0B5
:10125000B0F1804F08D01B4B984205D01A4B9842F2
:1012600002D01A4B984204D14FF68F731A404B8824
:101270001A43174B984207D0164B984204D04FF6AA
:10128000FF431A40CB881A4302808B8883850B88E2
:1012900003850A4B98420BD0094B984208D00E4B5D
:1012A000984205D00D4B984202D00D4B984201D187
:1012B0000B7A03860123838270470000002C0140D3
:1012C000003401400004004000080040000C0040D1
:1012D0000010004000140040004001400044014064
:1012E0000048014000BFFEE710B56FF00400FFF7B3
:1012F000F7FE0A480068C0080949B0FBF1F0094947
:1013000008800846008800EB4001C1EBC0104FF692
:10131000FF7101EAC0000449088010BD2C000020C4
:1013200040420F000200002004000020014606E0B9
:1013300042F6E06200E0521E002AFCD1491E00295C
:10134000F6D1704700244FF4A060FFF72DFBFFF7A4
:10135000CBFFFFF73BF9FFF777F8FFF719FFFFF730
:1013600085F9FFF7B1FBFFF729FB14A2002108461E
:10137000FFF7DCFCFFF752F928B115A2022100208B
:10138000FFF7D4FC04E015A202210020FFF7CEFCF9
:10139000FFF7D4F910E01348007840B1FFF796F852
:1013A000FFF786FE601CC4B200200E490870C82CEE
:1013B00002DB0024FFF764FAEDE70000322E344729
:1013C0002054656C65636F6E74726F6C0000000072
:1013D000322E3447204552524F520000322E3447AD
:1013E000204F4B000000002010B50246012000E015
:1013F00050430B1EA1F10104E1B2F9D110BD000070
:10140000000000000000002F00000000070007009F
:1014100000147F147F1400242A7F2A1200626408BB
:101420001323003649552250000005030000000038
:101430001C224100000041221C000014083E081438
:101440000008083E0808000000A060000008080826
:101450000808000060600000002010080402003E40
:101460005149453E0000427F4000004261514946DB
:10147000002141454B31001814127F1000274545CB
:101480004539003C4A4949300001710905030036DD
:101490004949493600064949291E000036360000F0
:1014A00000005636000000081422410000141414F5
:1014B00014140000412214080002015109060032F0
:1014C0004959513E007C1211127C007F494949362E
:1014D000003E41414122007F4141221C007F494999
:1014E0004941007F09090901003E4149497A007FCD
:1014F0000808087F0000417F4100002040413F0173
:10150000007F08142241007F40404040007F020CD1
:10151000027F007F0408107F003E4141413E007F72
:1015200009090906003E4151215E007F091929463B
:101530000046494949310001017F0101003F404017
:10154000403F001F2040201F003F4038403F0063C5
:1015500014081463000708700807006151494543E7
:1015600000007F41410000552A552A5500004141A5
:101570007F0000040201020400404040404000009F
:1015800001020400002054545478007F4844443839
:1015900000384444442000384444487F00385454C0
:1015A000541800087E0901020018A4A4A47C007F3E
:1015B000080404780000447D4000004080847D00E1
:1015C000007F102844000000417F4000007C041888
:1015D0000478007C0804047800384444443800FC53
:1015E000242424180018242418FC007C080404086F
:1015F00000485454542000043F444020003C4040E4
:10160000207C001C2040201C003C4030403C00441A
:1016100028102844001CA0A0A07C004464544C4422
:101620001414141414140000000000000000000042
:10163000000000000000000000F8000000000000B2
:1016400000333000000000100C06100C06000000F3
:1016500000000000000040C07840C0784000043F17
:1016600004043F040400007088FC083000000018E7
:1016700020FF211E0000F008F000E018000000210B
:101680001C031E211E0000F00888700000001E21AF
:1016900023241927211010160E000000000000005E
:1016A000000000000000000000E01804020000003C
:1016B00000071820400000020418E000000000406D
:1016C000201807000000404080F0804040000202E7
:1016D000010F01020200000000F000000000010103
:1016E000011F01010100000000000000000080B0A7
:1016F0007000000000000000000000000000000179
:1017000001010101010100000000000000000030A3
:10171000300000000000000000008060180400603D
:1017200018060100000000E010080810E000000F9B
:10173000102020100F00001010F800000000002002
:10174000203F20200000007008080888700000304A
:1017500028242221300000300888884830000018F2
:10176000202020110E000000C02010F8000000070B
:101770000424243F240000F8088888080800001981
:10178000212020110E0000E0108888180000000FB2
:10179000112020110E0000380808C8380800000089
:1017A000003F000000000070880808887000001CDE
:1017B000222121221C0000E010080810E000000097
:1017C000312222110F00000000C0C0000000000004
:1017D0000030300000000000008000000000000029
:1017E0008060000000000000804020100800000120
:1017F00002040810200040404040404040000404E3
:1018000004040404040000081020408000000020AC
:10181000100804020100007048080808F0000000E9
:10182000003036010000C030C828E810E00007187A
:10183000272423140B000000C038E0000000203CE7
:1018400023020227382008F8888888700000203F8B
:10185000202020110E00C0300808080838000718A2
:1018600020202010080008F808080810E000203F99
:10187000202020100F0008F88888E8081000203F7A
:1018800020202320180008F88888E8081000203F4E
:10189000200003000000C0300808083800000718C6
:1018A0002020221E020008F808000008F808203F47
:1018B000210101213F20000808F80808000000204D
:1018C000203F2020000000000808F8080800C08021
:1018D00080807F00000008F888C028180800203F9A
:1018E00020012638200008F8080000000000203FF2
:1018F00020202020300008F8F800F8F80800203FE9
:10190000003F003F200008F830C00008F808203FE2
:10191000200007183F00E01008080810E0000F1032
:10192000202020100F0008F808080808F000203FC9
:10193000210101010000E01008080810E0000F1864
:10194000242438504F0008F8888888887000203F89
:101950002000030C30200070880808083800003888
:10196000202121221C00180808F80808180000008F
:10197000203F2000000008F808000008F808001FB9
:10198000202020201F000878880000C838080000A8
:1019900007380E010000F80800F80008F800033CC2
:1019A0000700073C0300081868808068180820308A
:1019B0002C03032C30200838C800C8380800000069
:1019C000203F2000000010080808C8380800203810
:1019D000262120201800000000FE02020200000064
:1019E000007F40404000000C30C0000000000000BC
:1019F00000010638C00000020202FE0000000040A4
:101A000040407F00000000000402020204000000C9
:101A100000000000000000000000000000008080C6
:101A200080808080808000020204000000000000AE
:101A3000000000000000000080808080000000198D
:101A4000242222223F2008F8008080000000003F6E
:101A5000112020110E000000008080800000000E88
:101A6000112020201100000000808088F800000E66
:101A7000112020103F200000808080800000001F87
:101A8000222222221300008080F0888888180020FB
:101A9000203F202000000000808080808000006BBC
:101AA00094949493600008F8008080800000203FA8
:101AB000210000203F2000809898000000000020B6
:101AC000203F20200000000000809898000000C007
:101AD0008080807F000008F8000080808000203F28
:101AE00024022D302000000808F80000000000202B
:101AF000203F202000008080808080808000203F68
:101B000020003F20003F8080008080800000203F38
:101B1000210000203F200000808080800000001F06
:101B2000202020201F00808000808000000080FF97
:101B3000A12020110E000000008080808000000E97
:101B4000112020A0FF8080808000808080002020E5
:101B50003F21200001000000808080808000003351
:101B6000242424241900008080E0808000000000EC
:101B7000001F202000008080000000808000001FE7
:101B8000202020103F208080800000808080000185
:101B90000E300806010080800080008080800F30B9
:101BA0000C030C300F00008080008080800000203B
:101BB000312E0E3120008080800000808080808166
:101BC0008E701806010000808080808080000021D7
:101BD000302C2221300000000000807C0202000036
:101BE0000000003F404000000000FF000000000037
:101BF0000000FF0000000002027C800000000040A6
:101C0000403F000000000006010102020404000041
:101C1000000000000000666C796572666C79657280
:101C2000401C0008000000204000000028010008BF
:101C3000801C0008400000208806000044010008C5
:101C4000000000000000000000010101010100028D
:101C500000020B0C0F0306070809000E080F000016
:101C600000000000000001000000000000A24A0483
:101C7000000000000000000001020304060708093C
:040000050800018965
:00000001FF
